{
  "contractName": "CertNotary",
  "abi": [
    {
      "inputs": [],
      "payable": false,
      "stateMutability": "nonpayable",
      "type": "constructor"
    },
    {
      "anonymous": false,
      "inputs": [
        {
          "indexed": false,
          "internalType": "bytes32",
          "name": "_certificateId",
          "type": "bytes32"
        }
      ],
      "name": "certificateGenerated",
      "type": "event"
    },
    {
      "constant": true,
      "inputs": [
        {
          "internalType": "bytes32",
          "name": "",
          "type": "bytes32"
        }
      ],
      "name": "certificates",
      "outputs": [
        {
          "internalType": "string",
          "name": "name",
          "type": "string"
        },
        {
          "internalType": "string",
          "name": "title",
          "type": "string"
        },
        {
          "internalType": "uint256",
          "name": "date",
          "type": "uint256"
        },
        {
          "internalType": "uint256",
          "name": "expDate",
          "type": "uint256"
        }
      ],
      "payable": false,
      "stateMutability": "view",
      "type": "function"
    },
    {
      "constant": false,
      "inputs": [
        {
          "internalType": "string",
          "name": "_name",
          "type": "string"
        },
        {
          "internalType": "string",
          "name": "_title",
          "type": "string"
        },
        {
          "internalType": "uint256",
          "name": "_date",
          "type": "uint256"
        },
        {
          "internalType": "uint256",
          "name": "_expDate",
          "type": "uint256"
        }
      ],
      "name": "generateCertificate",
      "outputs": [],
      "payable": false,
      "stateMutability": "nonpayable",
      "type": "function"
    },
    {
      "constant": true,
      "inputs": [
        {
          "internalType": "bytes",
          "name": "_id",
          "type": "bytes"
        }
      ],
      "name": "getData",
      "outputs": [
        {
          "internalType": "string",
          "name": "",
          "type": "string"
        },
        {
          "internalType": "string",
          "name": "",
          "type": "string"
        },
        {
          "internalType": "uint256",
          "name": "",
          "type": "uint256"
        },
        {
          "internalType": "uint256",
          "name": "",
          "type": "uint256"
        }
      ],
      "payable": false,
      "stateMutability": "view",
      "type": "function"
    }
  ],
  "bytecode": "0x608060405234801561001057600080fd5b50610b7f806100206000396000f3fe608060405234801561001057600080fd5b50600436106100415760003560e01c80631431b23a14610046578063335417c6146101f4578063742f06881461035a575b600080fd5b6100ff6004803603602081101561005c57600080fd5b810190808035906020019064010000000081111561007957600080fd5b82018360208201111561008b57600080fd5b803590602001918460018302840111640100000000831117156100ad57600080fd5b91908080601f016020809104026020016040519081016040528093929190818152602001838380828437600081840152601f19601f82011690508083019250505050505050919291929050505061047b565b604051808060200180602001858152602001848152602001838103835287818151815260200191508051906020019080838360005b8381101561014f578082015181840152602081019050610134565b50505050905090810190601f16801561017c5780820380516001836020036101000a031916815260200191505b50838103825286818151815260200191508051906020019080838360005b838110156101b557808201518184015260208101905061019a565b50505050905090810190601f1680156101e25780820380516001836020036101000a031916815260200191505b50965050505050505060405180910390f35b6103586004803603608081101561020a57600080fd5b810190808035906020019064010000000081111561022757600080fd5b82018360208201111561023957600080fd5b8035906020019184600183028401116401000000008311171561025b57600080fd5b91908080601f016020809104026020016040519081016040528093929190818152602001838380828437600081840152601f19601f820116905080830192505050505050509192919290803590602001906401000000008111156102be57600080fd5b8201836020820111156102d057600080fd5b803590602001918460018302840111640100000000831117156102f257600080fd5b91908080601f016020809104026020016040519081016040528093929190818152602001838380828437600081840152601f19601f82011690508083019250505050505050919291929080359060200190929190803590602001909291905050506106b3565b005b6103866004803603602081101561037057600080fd5b81019080803590602001909291905050506108d2565b604051808060200180602001858152602001848152602001838103835287818151815260200191508051906020019080838360005b838110156103d65780820151818401526020810190506103bb565b50505050905090810190601f1680156104035780820380516001836020036101000a031916815260200191505b50838103825286818151815260200191508051906020019080838360005b8381101561043c578082015181840152602081019050610421565b50505050905090810190601f1680156104695780820380516001836020036101000a031916815260200191505b50965050505050505060405180910390f35b606080600080600061048c86610a32565b9050610496610a55565b600080838152602001908152602001600020604051806080016040529081600082018054600181600116156101000203166002900480601f01602080910402602001604051908101604052809291908181526020018280546001816001161561010002031660029004801561054c5780601f106105215761010080835404028352916020019161054c565b820191906000526020600020905b81548152906001019060200180831161052f57829003601f168201915b50505050508152602001600182018054600181600116156101000203166002900480601f0160208091040260200160405190810160405280929190818152602001828054600181600116156101000203166002900480156105ee5780601f106105c3576101008083540402835291602001916105ee565b820191906000526020600020905b8154815290600101906020018083116105d157829003601f168201915b50505050508152602001600282015481526020016003820154815250509050600081606001511415610688576040517f08c379a000000000000000000000000000000000000000000000000000000000815260040180806020018281038252600e8152602001807f4e6f20646174612065786973747300000000000000000000000000000000000081525060200191505060405180910390fd5b8060000151816020015182604001518360600151839350829250955095509550955050509193509193565b6000423342604051602001808481526020018373ffffffffffffffffffffffffffffffffffffffff1673ffffffffffffffffffffffffffffffffffffffff1660601b815260140182815260200193505050506040516020818303038152906040528051906020012060001c9050600061079f824201876040516020018083815260200182805190602001908083835b602083106107655780518252602082019150602081019050602083039250610742565b6001836020036101000a03801982511681845116808217855250505050505090500192505050604051602081830303815290604052610a32565b90506000806000838152602001908152602001600020600301541461080f576040517f08c379a0000000000000000000000000000000000000000000000000000000008152600401808060200182810382526028815260200180610b236028913960400191505060405180910390fd5b604051806080016040528087815260200186815260200185815260200184815250600080838152602001908152602001600020600082015181600001908051906020019061085e929190610a7d565b50602082015181600101908051906020019061087b929190610a7d565b5060408201518160020155606082015181600301559050507ff54e0f0055ffae318a21890316ed523f8a60aa59aaa279dfdcae7176155ec0db816040518082815260200191505060405180910390a1505050505050565b6000602052806000526040600020600091509050806000018054600181600116156101000203166002900480601f01602080910402602001604051908101604052809291908181526020018280546001816001161561010002031660029004801561097e5780601f106109535761010080835404028352916020019161097e565b820191906000526020600020905b81548152906001019060200180831161096157829003601f168201915b505050505090806001018054600181600116156101000203166002900480601f016020809104026020016040519081016040528092919081815260200182805460018160011615610100020316600290048015610a1c5780601f106109f157610100808354040283529160200191610a1c565b820191906000526020600020905b8154815290600101906020018083116109ff57829003601f168201915b5050505050908060020154908060030154905084565b60008082511415610a48576000801b9050610a50565b602082015190505b919050565b6040518060800160405280606081526020016060815260200160008152602001600081525090565b828054600181600116156101000203166002900490600052602060002090601f016020900481019282601f10610abe57805160ff1916838001178555610aec565b82800160010185558215610aec579182015b82811115610aeb578251825591602001919060010190610ad0565b5b509050610af99190610afd565b5090565b610b1f91905b80821115610b1b576000816000905550600101610b03565b5090565b9056fe4365727469666963617465207769746820676976656e20696420616c726561647920657869737473a265627a7a723158201eff0fb38009bca4096f30042908e5a784924517a1a9b862f6ed5d417a2b6d6c64736f6c63430005100032",
  "source": "pragma solidity ^0.5.16;\r\n// import \"./ConvertLib.sol\";\r\n\r\ncontract CertNotary {\r\n    constructor() public {}\r\n\r\n    struct Certificate {\r\n        string name;\r\n        string title;\r\n        uint256 date;\r\n        uint256 expDate;\r\n    }\r\n\r\n    mapping(bytes32 => Certificate) public certificates;\r\n\r\n    event certificateGenerated(bytes32 _certificateId);\r\n\r\n    function stringToBytes32(bytes memory source) private pure returns (bytes32 result) {\r\n        if (source.length == 0) {\r\n            return 0x0;\r\n        }\r\n        assembly {\r\n            result := mload(add(source, 32))\r\n        }\r\n    }\r\n\r\n    function generateCertificate(\r\n        string memory _name,\r\n        string memory _title,\r\n        uint256 _date,\r\n        uint256 _expDate\r\n            ) public {\r\n        uint256 rand = uint256(keccak256(abi.encodePacked(now, msg.sender, block.timestamp)));\r\n        bytes32 byte_id = stringToBytes32(abi.encodePacked(now + rand, _name));\r\n    require(\r\n        certificates[byte_id].expDate == 0,\r\n        \"Certificate with given id already exists\"\r\n    );\r\n    certificates[byte_id] = Certificate(_name, _title, _date, _expDate);\r\n    emit certificateGenerated(byte_id);\r\n}\r\n\r\n   function getData(bytes memory _id) public view returns(string memory, string memory, uint256, uint256) {\r\n        bytes32 byte_id = stringToBytes32(_id);\r\n        Certificate memory temp = certificates[byte_id];\r\n        require(temp.expDate != 0, \"No data exists\");\r\n        return (temp.name, temp.title, temp.date, temp.expDate);\r\n    }\r\n}\r\n",
  "sourcePath": "c:\\Users\\Linton\\Desktop\\NewTest\\contracts\\CertNotary.sol",
  "compiler": {
    "name": "solc",
    "version": "0.5.16+commit.9c3226ce.Emscripten.clang"
  },
  "schemaVersion": "3.4.11",
  "updatedAt": "2023-02-13T14:40:28.016Z",
  "networkType": "ethereum",
  "devdoc": {
    "methods": {}
  },
  "userdoc": {
    "methods": {}
  }
}