{
  "contractName": "CertNotary",
  "abi": [
    {
      "inputs": [],
      "payable": false,
      "stateMutability": "nonpayable",
      "type": "constructor"
    },
    {
      "anonymous": false,
      "inputs": [
        {
          "indexed": false,
          "internalType": "bytes32",
          "name": "_certificateId",
          "type": "bytes32"
        }
      ],
      "name": "certificateGenerated",
      "type": "event"
    },
    {
      "constant": true,
      "inputs": [
        {
          "internalType": "bytes32",
          "name": "",
          "type": "bytes32"
        }
      ],
      "name": "certificates",
      "outputs": [
        {
          "internalType": "string",
          "name": "name",
          "type": "string"
        },
        {
          "internalType": "string",
          "name": "title",
          "type": "string"
        },
        {
          "internalType": "uint256",
          "name": "date",
          "type": "uint256"
        },
        {
          "internalType": "uint256",
          "name": "expDate",
          "type": "uint256"
        },
        {
          "internalType": "bytes32",
          "name": "byte_id",
          "type": "bytes32"
        }
      ],
      "payable": false,
      "stateMutability": "view",
      "type": "function"
    },
    {
      "constant": false,
      "inputs": [
        {
          "internalType": "string",
          "name": "_name",
          "type": "string"
        },
        {
          "internalType": "string",
          "name": "_title",
          "type": "string"
        },
        {
          "internalType": "uint256",
          "name": "_date",
          "type": "uint256"
        },
        {
          "internalType": "uint256",
          "name": "_expDate",
          "type": "uint256"
        }
      ],
      "name": "generateCertificate",
      "outputs": [],
      "payable": false,
      "stateMutability": "nonpayable",
      "type": "function"
    },
    {
      "constant": true,
      "inputs": [
        {
          "internalType": "bytes",
          "name": "_id",
          "type": "bytes"
        }
      ],
      "name": "getData",
      "outputs": [
        {
          "internalType": "string",
          "name": "",
          "type": "string"
        },
        {
          "internalType": "string",
          "name": "",
          "type": "string"
        },
        {
          "internalType": "uint256",
          "name": "",
          "type": "uint256"
        },
        {
          "internalType": "uint256",
          "name": "",
          "type": "uint256"
        },
        {
          "internalType": "bytes32",
          "name": "",
          "type": "bytes32"
        }
      ],
      "payable": false,
      "stateMutability": "view",
      "type": "function"
    }
  ],
  "bytecode": "0x608060405234801561001057600080fd5b50610bc1806100206000396000f3fe608060405234801561001057600080fd5b50600436106100415760003560e01c80631431b23a14610046578063335417c6146101fb578063742f068814610361575b600080fd5b6100ff6004803603602081101561005c57600080fd5b810190808035906020019064010000000081111561007957600080fd5b82018360208201111561008b57600080fd5b803590602001918460018302840111640100000000831117156100ad57600080fd5b91908080601f016020809104026020016040519081016040528093929190818152602001838380828437600081840152601f19601f820116905080830192505050505050509192919290505050610489565b604051808060200180602001868152602001858152602001848152602001838103835288818151815260200191508051906020019080838360005b8381101561015557808201518184015260208101905061013a565b50505050905090810190601f1680156101825780820380516001836020036101000a031916815260200191505b50838103825287818151815260200191508051906020019080838360005b838110156101bb5780820151818401526020810190506101a0565b50505050905090810190601f1680156101e85780820380516001836020036101000a031916815260200191505b5097505050505050505060405180910390f35b61035f6004803603608081101561021157600080fd5b810190808035906020019064010000000081111561022e57600080fd5b82018360208201111561024057600080fd5b8035906020019184600183028401116401000000008311171561026257600080fd5b91908080601f016020809104026020016040519081016040528093929190818152602001838380828437600081840152601f19601f820116905080830192505050505050509192919290803590602001906401000000008111156102c557600080fd5b8201836020820111156102d757600080fd5b803590602001918460018302840111640100000000831117156102f957600080fd5b91908080601f016020809104026020016040519081016040528093929190818152602001838380828437600081840152601f19601f82011690508083019250505050505050919291929080359060200190929190803590602001909291905050506106d5565b005b61038d6004803603602081101561037757600080fd5b8101908080359060200190929190505050610904565b604051808060200180602001868152602001858152602001848152602001838103835288818151815260200191508051906020019080838360005b838110156103e35780820151818401526020810190506103c8565b50505050905090810190601f1680156104105780820380516001836020036101000a031916815260200191505b50838103825287818151815260200191508051906020019080838360005b8381101561044957808201518184015260208101905061042e565b50505050905090810190601f1680156104765780820380516001836020036101000a031916815260200191505b5097505050505050505060405180910390f35b60608060008060008061049b87610a6a565b90506104a5610a8d565b6000808381526020019081526020016000206040518060a0016040529081600082018054600181600116156101000203166002900480601f01602080910402602001604051908101604052809291908181526020018280546001816001161561010002031660029004801561055b5780601f106105305761010080835404028352916020019161055b565b820191906000526020600020905b81548152906001019060200180831161053e57829003601f168201915b50505050508152602001600182018054600181600116156101000203166002900480601f0160208091040260200160405190810160405280929190818152602001828054600181600116156101000203166002900480156105fd5780601f106105d2576101008083540402835291602001916105fd565b820191906000526020600020905b8154815290600101906020018083116105e057829003601f168201915b50505050508152602001600282015481526020016003820154815260200160048201548152505090506000816060015114156106a1576040517f08c379a000000000000000000000000000000000000000000000000000000000815260040180806020018281038252600e8152602001807f4e6f20646174612065786973747300000000000000000000000000000000000081525060200191505060405180910390fd5b8060000151816020015182604001518360600151846080015184945083935096509650965096509650505091939590929450565b6000423342604051602001808481526020018373ffffffffffffffffffffffffffffffffffffffff1673ffffffffffffffffffffffffffffffffffffffff1660601b815260140182815260200193505050506040516020818303038152906040528051906020012060001c905060006107c1824201876040516020018083815260200182805190602001908083835b602083106107875780518252602082019150602081019050602083039250610764565b6001836020036101000a03801982511681845116808217855250505050505090500192505050604051602081830303815290604052610a6a565b905060008060008381526020019081526020016000206003015414610831576040517f08c379a0000000000000000000000000000000000000000000000000000000008152600401808060200182810382526028815260200180610b656028913960400191505060405180910390fd5b6040518060a00160405280878152602001868152602001858152602001848152602001828152506000808381526020019081526020016000206000820151816000019080519060200190610886929190610abf565b5060208201518160010190805190602001906108a3929190610abf565b506040820151816002015560608201518160030155608082015181600401559050507ff54e0f0055ffae318a21890316ed523f8a60aa59aaa279dfdcae7176155ec0db816040518082815260200191505060405180910390a1505050505050565b6000602052806000526040600020600091509050806000018054600181600116156101000203166002900480601f0160208091040260200160405190810160405280929190818152602001828054600181600116156101000203166002900480156109b05780601f10610985576101008083540402835291602001916109b0565b820191906000526020600020905b81548152906001019060200180831161099357829003601f168201915b505050505090806001018054600181600116156101000203166002900480601f016020809104026020016040519081016040528092919081815260200182805460018160011615610100020316600290048015610a4e5780601f10610a2357610100808354040283529160200191610a4e565b820191906000526020600020905b815481529060010190602001808311610a3157829003601f168201915b5050505050908060020154908060030154908060040154905085565b60008082511415610a80576000801b9050610a88565b602082015190505b919050565b6040518060a0016040528060608152602001606081526020016000815260200160008152602001600080191681525090565b828054600181600116156101000203166002900490600052602060002090601f016020900481019282601f10610b0057805160ff1916838001178555610b2e565b82800160010185558215610b2e579182015b82811115610b2d578251825591602001919060010190610b12565b5b509050610b3b9190610b3f565b5090565b610b6191905b80821115610b5d576000816000905550600101610b45565b5090565b9056fe4365727469666963617465207769746820676976656e20696420616c726561647920657869737473a265627a7a72315820b7e6927a6102ef49b79ad4f6a46e95d0d365adbe68c3677fbf4697717020827664736f6c63430005100032",
  "source": "pragma solidity ^0.5.16;\r\n// import \"./ConvertLib.sol\";\r\n\r\ncontract CertNotary {\r\n    constructor() public {}\r\n\r\n    struct Certificate {\r\n        string name;\r\n        string title;\r\n        uint256 date;\r\n        uint256 expDate;\r\n        bytes32 byte_id;\r\n    }\r\n\r\n    mapping(bytes32 => Certificate) public certificates;\r\n\r\n    event certificateGenerated(bytes32 _certificateId);\r\n\r\n    function stringToBytes32(bytes memory source) private pure returns (bytes32 result) {\r\n        if (source.length == 0) {\r\n            return 0x0;\r\n        }\r\n        assembly {\r\n            result := mload(add(source, 32))\r\n        }\r\n    }\r\n\r\n    function generateCertificate(\r\n        string memory _name,\r\n        string memory _title,\r\n        uint256 _date,\r\n        uint256 _expDate\r\n            ) public {\r\n        uint256 rand = uint256(keccak256(abi.encodePacked(now, msg.sender, block.timestamp)));\r\n        bytes32 byte_id = stringToBytes32(abi.encodePacked(now + rand, _name));\r\n    require(\r\n        certificates[byte_id].expDate == 0,\r\n        \"Certificate with given id already exists\"\r\n    );\r\n    certificates[byte_id] = Certificate(_name, _title, _date, _expDate, byte_id);\r\n    emit certificateGenerated(byte_id);\r\n}\r\n\r\n   function getData(bytes memory _id) public view returns(string memory, string memory, uint256, uint256, bytes32) {\r\n        bytes32 byte_id = stringToBytes32(_id);\r\n        Certificate memory temp = certificates[byte_id];\r\n        require(temp.expDate != 0, \"No data exists\");\r\n        return (temp.name, temp.title, temp.date, temp.expDate, temp.byte_id);\r\n    }\r\n}\r\n",
  "sourcePath": "c:\\Users\\Linton\\Desktop\\NewTest\\contracts\\CertNotary.sol",
  "compiler": {
    "name": "solc",
    "version": "0.5.16+commit.9c3226ce.Emscripten.clang"
  },
  "schemaVersion": "3.4.11",
  "updatedAt": "2023-02-26T03:23:34.651Z",
  "networkType": "ethereum",
  "devdoc": {
    "methods": {}
  },
  "userdoc": {
    "methods": {}
  }
}